:1000000000000320C10E0000A50E00005D0E0000E0
:100010005D0E00005D0E00005D0E00005D0E000034
:100020005D0E00005D0E00005D0E0000A50E0000DC
:10003000A50E00005D0E0000752B0000ED2D0000E8
:10004000A50E0000A50E0000A50E0000A50E0000E4
:10005000A50E0000A50E0000A50E0000A50E0000D4
:10006000A50E0000A50E0000A50E0000A50E0000C4
:10007000A50E0000A50E0000A50E0000A50E0000B4
:10008000A50E0000A50E0000A50E0000A50E0000A4
:10009000A50E0000A50E0000A50E0000A50E000094
:1000A000A50E0000A50E0000A50E0000A50E000084
:1000B000A50E0000A50E0000A50E000015320000E0
:1000C000A50E000071330000A50E0000CD34000025
:1000D000A50E0000FD350000A50E0000A50E0000D5
:1000E000A50E0000A50E0000A50E0000A50E000044
:1000F000A50E0000A50E0000A50E0000A50E000034
:10010000A50E0000A50E0000A50E0000A50E000023
:10011000A50E0000C1180000A50E0000A50E0000ED
:10012000A50E0000A50E0000A50E0000A50E000003
:10013000A50E0000A50E0000A50E0000A50E0000F3
:10014000A50E0000A50E00002D370000A50E000032
:10015000A50E0000A50E0000A50E0000A50E0000D3
:10016000A50E0000A50E0000A50E0000A50E0000C3
:10017000A50E0000A50E0000A50E0000A50E0000B3
:10018000A50E0000A50E0000A50E0000A50E0000A3
:10019000A50E0000A50E00005D380000A50E0000B1
:1001A000A50E0000A50E0000A50E0000A50E000083
:1001B000A50E0000A50E0000A50E0000A50E000073
:1001C000A50E0000A50E0000A50E0000A50E000063
:1001D000FFFFFFFFFFFFFFFFFFFFFFFFFFFFFFFF2F
:10040000FFFFFFFFFFFFFFFFFFFFFFFFDEF9FFFF23
:1004100010B5054C237833B9044B13B10448AFF33E
:1004200000800123237010BD6C10FF1F000000002E
:10043000A0470000084B10B51BB108490848AFF3AE
:1004400000800848036803B910BD074B002BFBD0A0
:10045000BDE81040184700BF000000007010FF1FEB
:10046000A04700006C10FF1F0000000008B510E05E
:1004700044F2D4302821C0F2000002F0B7F940F273
:100480007870C1F6FF7002F021FD4FF47A7001F030
:10049000D1F841F28800C1F6FF7000F0C7FA0028D9
:1004A000E6D008BD38B541F28805C1F6FF7528468B
:1004B00000F078FB40F2787444F20040C1F6FF741B
:1004C0000421C0F2000002F091F9A97800230A2269
:1004D000204602F00DFD44F208400421C0F2000065
:1004E00002F084F900230A22E978204602F000FD98
:1004F00044F210400421C0F2000002F077F9B5F98F
:100500000410204602F084FC44F218400421C0F29A
:10051000000002F06BF9B5F90610204602F078FCF5
:1005200044F220400421C0F2000002F05FF9297A71
:1005300000230A22204602F0DBFC44F22840052179
:10054000C0F2000002F052F9697A00230A22204624
:1005500002F0CEFC44F230400521C0F2000002F06F
:1005600045F9A97A00230A22204602F0C1FC44F290
:1005700038400521C0F2000002F038F9E97A002382
:100580000A22204602F0B4FC44F240400521C0F2A9
:10059000000002F02BF9297B00230A22204602F0FA
:1005A000A7FC44F248400521C0F2000002F01EF909
:1005B000697B002320460A2202F09AFC204602F0C2
:1005C00085FC1020BDE8384001F034B841F28800C5
:1005D000C1F6FF700A2100F001B800BF00220170CF
:1005E0004270704730B440F23073C1F6FF73DA7A6C
:1005F000002A32D072B6D97ACD070A4609D54EF212
:100600008015CEF20005DA682C681440DC610A46D9
:100610002C608C0709D54EF28411CEF200011A69C4
:100620000C6822401A620A60DA7A510709D54EF244
:100630008811CEF200015A690C6822405A620A60A1
:10064000DA7A120708D54EF28C11CEF200019A69BF
:100650000C6822409A620A6062B61B680022D96860
:10066000C3F6016291420DD00024214644F20105F7
:10067000C0F23F05C7F60164C8F23F011D60DA60B1
:100680001C6119600078002130BC00F071BF00BF10
:10069000F8B50D4617460646FFF7A4FF40F6B833F7
:1006A000013BFDD140F23074C1F6FF7445F0800586
:1006B00023684FF00042DA625D63D96A0029FCDAF0
:1006C0004FF00042996BDA625F63DA6A002AFCDA63
:1006D00040F6B8329B6B1346013BFDD101213078C7
:1006E00000F046FFE37A40F230721946C1F6FF721D
:1006F00013B3DD0706D54FF46141CEF20001D26994
:100700000A601946980706D54EF20413CEF200038C
:10071000226A1A60E17A4A0706D54EF20813CEF231
:100720000003626A1A60E17A0B0705D54EF20C13DA
:10073000CEF20003A26A1A6042F6E063013BFDD1EB
:10074000F8BD00BF10B5002204467F21FFF7A0FFCF
:100750002046AD226121FFF79BFF204603227F2127
:10076000FFF796FF204600224021FFF791FF204629
:1007700005227F21FFF78CFF2046B3224121FFF79E
:1007800087FF2046F1224321FFF782FF20461422F3
:100790004521FFF77DFF204632225B21FFF778FFDE
:1007A000204634225F21FFF773FF204608227B2179
:1007B000FFF76EFF204606227F21FFF769FF2046E4
:1007C0001B224421FFF764FF2046BF224021FFF790
:1007D0005FFF20463F224E21FFF75AFF20460822A6
:1007E0007F21FFF755FF204620226521FFF750FFAC
:1007F000204618226A21FFF74BFF204609227F215D
:10080000FFF746FF2046AF224F21FFF741FF20466A
:1008100040225F21FFF73CFF204680224821FFF75E
:1008200037FF204680224921FFF732FF20467722FA
:100830005721FFF72DFF204678226021FFF728FF80
:10084000204678226121FFF723FF204608226221FB
:10085000FFF71EFF204650226321FFF719FF2046B5
:100860000A227F21FFF714FF204660224521FFF76F
:100870000FFF204600227F21FFF70AFF20461122AA
:100880004D21FFF705FF204680225521FFF700FF8D
:1008900020461F227421FFF7FBFE20461F227521F0
:1008A000FFF7F6FE204678224A21FFF7F1FE2046A8
:1008B00078224B21FFF7ECFE204608224421FFF767
:1008C000E7FE204650224521FFF7E2FE2046FF22A8
:1008D0006421FFF7DDFE20461F226521FFF7D8FEC9
:1008E000204614227F21FFF7D3FE20466022652197
:1008F000FFF7CEFE204608226621FFF7C9FE2046FC
:1009000078226321FFF7C4FE204615227F21FFF7DE
:10091000BFFE204658224821FFF7BAFE2046072294
:100920007F21FFF7B5FE20460D224121FFF7B0FEE3
:10093000204614224321FFF7ABFE20460E224B2116
:10094000FFF7A6FE20460F224521FFF7A1FE204615
:1009500042224421FFF79CFE204680224C21FFF7D3
:1009600097FE204610227F21FFF792FE20460222AA
:100970005B21FFF78DFE204607227F21FFF788FECF
:10098000204641224021FFF783FE204600227021AD
:10099000FFF77EFE642000F04DFE20464422322107
:1009A000FFF776FE204607227F21FFF771FE4022E7
:1009B00020461146FFF76CFE204606227F21FFF7F6
:1009C00067FE2046F0226221FFF762FE20460022E9
:1009D0006321FFF75DFE20460D227F21FFF758FEC1
:1009E0002046C0224821FFF753FE2046D5226F2122
:1009F000FFF74EFE204600227F21FFF749FE2046EA
:100A0000A0225B21FFF744FE2046A8224E21FFF7DB
:100A10003FFE204650225A21FFF73AFE2046802210
:100A20004021BDE81040FFF733BE00BFF8B546785F
:100A30000EB10120F8BD40F230750446C1F6FF75D5
:100A4000284600F0CBF90121207800F0B7FD2046C0
:100A5000FFF7C8FD2B684FF00042DA625E63DA6A86
:100A6000002AFCDA40F6B832996B013AFDD14FF01A
:100A700000410022D9625A63DA6A002AFCDA0121B5
:100A800020789E6B00F074FDEB7A40F23072F6B283
:100A90001946C1F6FF7213B3D80706D54FF461416A
:100AA000CEF20001D2690A6019469A0706D54EF2C5
:100AB0000413CEF200032A6A1A60E97A4B0706D5BE
:100AC0004EF20813CEF200036A6A1A60E97A0F0741
:100AD00005D54EF20C13CEF20003AA6A1A60204626
:100AE000FFF780FD2B684FF000415F22D9625A6307
:100AF000DA6A002AFCDA40F6B832996B013AFDD185
:100B00004FF000410022D9625A63DA6A002AFCDA07
:100B10009B6B20780121DFB200F02AFDEB7A40F2D6
:100B200030721946C1F6FF7213B3D80706D54FF4D9
:100B30006141CEF20001D2690A601946980706D5D4
:100B40004EF20413CEF200032A6A1A60E97A4A07C9
:100B500006D54EF20813CEF200036A6A1A60E97AEB
:100B60000B0705D54EF20C13CEF20003AA6A1A60E9
:100B7000492E01D0B82F05D12046FFF7E3FD012013
:100B80006070F8BD44F250401521C0F2000001F041
:100B90002DFE40F27870C1F6FF7002F097F9002048
:100BA000F8BD00BF2DE9F04143780746002B59D02E
:100BB00040F23074C1F6FF743846FFF713FD226827
:100BC0004FF000411623D1625363D36A002BFCDA45
:100BD00040F63403916B013BFDD14FF0004607F125
:100BE0000208791C07F10D050020D6625063D36A14
:100BF000002BFCDA936B01F8013FA94201D0226877
:100C0000F3E70121387800F0B3FCE37A40F2307268
:100C10001946C1F6FF7213B3DD0706D54FF46141E3
:100C2000CEF20001D2690A601946980706D54EF245
:100C30000413CEF20003226A1A60E17A4A0706D54D
:100C40004EF20813CEF20003626A1A60E17A0B07D3
:100C500005D54EF20C13CEF20003A26A1A6040468C
:100C6000BDE8F081FFF7E2FE0028A1D180464046B2
:100C7000BDE8F08110B4047F4160022CC26003D053
:100C80005DF8044B01F02ABF83685DF8044B1847F8
:100C9000F0B440F23073C1F6FF7348F21F02996B53
:100CA000C4F2000208791070586B48F21C02C4F2BA
:100CB000000204791470097911701A6B002A4FD060
:100CC0005968C9688A4247D80168CC8B240402F16C
:100CD000FF3073D4C0F30E00C883C88B80B2C882C3
:100CE000996B0968C88B000460D4C2F30E00C883F6
:100CF000C88B002480B212F1FF32C88218BF0122D3
:100D00001C63596B086840F230710568C1F6FF71C9
:100D100001F12C04A54241D00968CC6814F0804F41
:100D20000468056815BF248824780235013544F02D
:100D3000004405604C63996B48F21B03C4F2000346
:100D40000979197040F23071C1F6FF7112B14A6B26
:100D500012791A70F0BC7047521A1A630122D0E758
:100D60001968D86B0A630024CFF60F74CC6204684C
:100D7000CD68266840F67544C0F2000425F0804531
:100D80000327A642CD6083F82D701FD1037F4260F8
:100D9000022BC2601ED0F0BC01F0A0BE086891F822
:100DA0002C10C46841F000414163C4E7CC8BC2F30E
:100DB000080004F47E442043C88399E7CC8BC0F339
:100DC000080004F47E442043C88386E73346114676
:100DD000F0BC18478368F0BC184700BF90E80C00CF
:100DE000F0B41F6859683C6841F20105214339603D
:100DF0002C4644F201060021C0F21F06C3F600058E
:100E0000C7F60004C8F21F011660D56014611160B6
:100E1000417A5C1844F2FC4294F82C40C0F2000283
:100E200002EBC4040C31646853F821102160017A8C
:100E30005C1803EB8101247ECD6902EBC401496893
:100E40000D60817A581803EB810390F84000596CCB
:100E500002EBC002F0BC53681960704748F23404DA
:100E600008B5C4F2040408E0236859050DD42368CA
:100E70001A050FD42368DB0411D423685803F3D573
:100E800000F01EFD23685905F1D502F0C3F923686F
:100E90001A05EFD502F06CFA2368DB04EDD502F0F9
:100EA00015FBEAE708B5FFF7D9FF00BF4FF4005381
:100EB000C4F2050310221A80704700BF704700BFBC
:100EC00042F20E03C4F205034CF2205210B51A8010
:100ED0004DF628121A8000BF00BFFFF7E7FF48F267
:100EE0003003C4F204034FF030621A6048F2380352
:100EF000C4F2040343F68272C0F204021A6048F29C
:100F00003C03C4F204030122C2F600321A604EF61A
:100F10008853CEF200034FF470021A604FF400536E
:100F2000CEF208030322C8F200521A604DF21002FA
:100F3000C4F20302136813F4807307D14DF2140155
:100F4000C4F203010B604FF4A85313604DF2020387
:100F5000C4F207031A78110703D51A7842F0080281
:100F60001A704FF46043C4F20703AA221A7044F2C5
:100F70009C7140F2307341F26C02C0F20001C1F684
:100F8000FF73C1F6FF72934204D251F8040F43F885
:100F9000040BF8E741F26C0341F20452C1F6FF730F
:100FA000C1F6FF720021934202D243F8041BFAE714
:100FB00040F2002040F200010023C1F6FF70C0F2B1
:100FC000000151F8232040F82320013340F2002291
:100FD000742BC1F6FF72F4D14FF464434EF26441B6
:100FE000CEF200038020CEF2000103F8010B8B4209
:100FF000FBD14EF60853CEF200031A604FF4A04323
:10100000C4F206038A221A704FF48043C4F2060326
:1010100024225A70A0221A709A799207FCD59A79E4
:10102000D406FCD44FF48042C4F20602937903F054
:101030000C03082BFAD14EF20103C4F2070360221D
:101040001A704EF20303C4F207031A78802AFCD107
:101050004FF48043C4F2060301221A715D225A71D3
:101060009A799006FCD59A795106FCD548F244024B
:10107000C4F204020021C0F20621116048F24802C5
:10108000C4F204020021116020221A704FF4804241
:10109000C4F20602937903F00C030C2BFAD148F248
:1010A0000403C4F204034FF48652C0F207021A602C
:1010B0004EF21403CEF200034BF61F72C0F202028E
:1010C0001A604EF21803CEF2000300221A604EF2AC
:1010D0001003CEF2000307221A604EF62053CEF220
:1010E00000030022C2F220021A6062B600F0A2F8E9
:1010F0004DF21403C4F203031B68DA070ED543F65E
:101100005B60C5F6434000F07FF84EF21C03C4F26A
:1011100003034CF2A532C5F694221A604FF47043D3
:10112000C4F207031B785B0612D54EF21C04C4F20E
:1011300003044CF2A5332268C5F694239A4207D1E2
:1011400043F65B60C5F6434000F05EF80023236081
:1011500002F096FCFFF7B2FE01F052FEFEE700BF80
:1011600008B540F27073C1F6FF731A6830B1694672
:101170001044A1F50051884202D21860104608BD03
:1011800002F078FC0C2303604FF0FF3008BD00BF75
:101190004EF20302C4F207021378802B01D0002024
:1011A000704748F244014EF20103C4F204010020EA
:1011B000C4F2070310B4C2F22820002408601C7097
:1011C0001378802BFCD001205DF8044B704700BFE2
:1011D0004EF20302C4F207021378012B01D0002063
:1011E00070474EF20103C4F20703602119701378AF
:1011F000802BFCD148F24403C4F204030022C0F265
:1012000006221A600120704730B44DF214034DF2EB
:1012100004014FF45042C4F20303C4F20301C4F2C8
:101220000302002410251C600C6010601D6030BC9F
:10123000704700BF2DE9F8434EF20413CEF20003CD
:101240004FF000621A604FF080521A604FF0005267
:101250001A6048F204004FF080421A60C4F20300A2
:101260004FF0004248F2080C48F20C071A60C4F232
:10127000030C0022C4F20307026028234EF6FF701D
:1012800048F2140648F21C0548F2240448F22C0ED9
:1012900048F23401CCF80000C4F203063B60C4F20B
:1012A0000305C4F20304C4F2030EC4F2030148F2BE
:1012B0003C07C4F20307336049F21C0C2B6048F270
:1012C0004406236049F20C05CEF8003049F21404BC
:1012D0000B6049F224013B60C4F20B05C4F20B041D
:1012E000C4F20B0CC4F20306C4F20B0149F22C0742
:1012F000C4F20B07336049F23C0E2B6049F234060E
:101300002360CCF800300B6049F244013B60C4F22A
:101310000B06C4F20B0EC4F20B014FF40047C4F2EB
:1013200003073360CEF8003049F204060B60092150
:101330003960C4F2030649F2080E49F20C07C4F200
:10134000030EC4F20307326049F21406CEF800001F
:10135000C4F203063B604FF4104E48F20407C4F297
:10136000030EC4F20B07336048F20806CEF80010F3
:10137000C4F20B063A6048F20C0E48F21407C4F2AD
:101380000B0EC4F20B0730604FF40046CEF800306D
:10139000C4F20B063B6049F2040E49F20807C4F29E
:1013A0000B0EC4F20B0731604FF41046CEF800204C
:1013B000C4F20B06386048F22C00C4F204002B6023
:1013C00023603160046848F20401C4F2040144F46B
:1013D00000740460086849F2040EC4F20C0E49F26D
:1013E000080749F20C0649F214054FF4104440F086
:1013F0000070C4F20C07C4F20C06C4F20C05C4F26F
:101400000C040860CEF8002047F6FF71082239600E
:1014100033602B60226001F029FE72B64EF2180391
:1014200041F298044EF60452C1F6FF74CEF2000366
:10143000CEF200021B682568126862B6510102D51F
:10144000322B88BF0135C3F52F3303F21F3346F625
:1014500017479B08C1F2C1674FF47A72A7FB0313C9
:1014600002FB05F54EF218094EF6045805EB9305FC
:10147000CEF20009CEF20008192672B6D9F8001093
:101480002268D8F800E062B6C1F52F3303F21F33AB
:101490009B08A7FB03031EF0806FC5EB93034FF47B
:1014A0007A7002D0322988BF013200FB0233B3F5D3
:1014B0007A7F04D3013E05D005F57A75DDE701F0AA
:1014C0006DFDDAE701F040F872B64EF218034EF601
:1014D0000452CEF20003CEF200021B6825681268A7
:1014E00062B6520102D5322B88BF0135C3F52F33C6
:1014F00003F21F3346F617479B08C1F2C1674FF44A
:101500007A72A7FB031302FB05F54EF218094EF69B
:10151000045805EB9305CEF20009CEF2000840F224
:10152000131672B6D9F800102268D8F800E062B637
:10153000C1F52F3303F21F339B08A7FB03031EF0F3
:10154000806FC5EB93034FF47A7002D0322988BFC5
:10155000013200FB0233B3F57A7F04D3013E05D09C
:1015600005F57A75DDE701F019FDDAE7BDE8F883E6
:101570003F280FD810B444F2FC43C0F2000353F8E4
:10158000302092F8804234B1012379B182F8803062
:101590005DF8044B704703EBC0035B681A6841B900
:1015A00022F002021A605DF8044B704782F80031A5
:1015B000F9E742F003021A60F5E700BF3F2823D89D
:1015C00044F2FC43C0F2000303EBC002012952685D
:1015D0000FD004291DD053F83000002380F880324A
:1015E00099B1022922D003290DD14FF481731360E0
:1015F000704753F830004FF4A27380F880121360E4
:10160000136823F02003136070474FF48073136056
:10161000704753F830104FF4A273012081F8800214
:101620001360136843F020031360704740F2031304
:10163000136070472DE9F843054672B64EF2180361
:1016400041F298064EF60452C1F6FF76CEF2000340
:10165000CEF200021B683468126862B6520102D5ED
:10166000322B88BF0134002D3DD0C3F52F3303F258
:101670001F3346F617479B08C1F2C1674FF47A72D1
:10168000A7FB031302FB04F44EF218094EF60458AC
:1016900004EB9304CEF20009CEF2000872B6D9F83A
:1016A00000103268D8F800E062B6C1F52F3303F2BB
:1016B0001F339B08A7FB03031EF0806FC4EB93034B
:1016C0004FF47A7002D0322988BF013200FB023316
:1016D000B3F57A7F04D3013D05D004F57A74DDE7D4
:1016E00001F05CFCDAE7BDE8F88300BF431E032B82
:1016F0001AD872B641F2F402C1F6FF7252F8230012
:1017000080B141F2EC41C1F6FF7170B4058831F847
:101710001340466842F82360621B21F8132062B62A
:1017200070BC704762B670470020704701380328CC
:101730000ED872B641F24813C1F6FF7353F8203049
:1017400043B100205B680130002BFBD162B67047CB
:10175000002070471846F9E770B472B644F2287258
:10176000C0F2000213781D0709D540F20003C1F64C
:10177000FF73196A002951D0996A002950D0537813
:101780001C0709D540F20003C1F6FF73196C00294C
:101790004AD0996C002945D09378190707D540F2B3
:1017A0000003C1F6FF73196E71B3996EC1B1D3789E
:1017B0001B070BD540F20003C1F6FF731024D3F8CA
:1017C000802012B3D3F88820112452B162B641F2BE
:1017D0007113C1F6FF7300221A7070BC00F06CBF69
:1017E0000D2441F27112C1F6FF7203EBC4061178A9
:1017F000C82508300139C0F240057060117043F807
:10180000345062B670BC70470C2441F27112C1F6BC
:10181000FF7203EBC40611788825EAE70424F4E795
:101820000524DEE70924DCE70824EEE7431E032B4A
:1018300027D8400140F20002C1F6FF7240F01000CC
:1018400030B4104472B641F28012C1F6FF72D45C1B
:10185000012C27D02BD3022C27D0032C12D041F2FD
:101860004810C1F6FF7050F8232012B341F258120D
:10187000C1F6FF7252F82300416042F8231062B6AD
:1018800030BC7047083004250C88D55410F0080F80
:1018900014BFC823882343EA04430831036041602E
:1018A00062B6EDE708300225EEE70525ECE70325F3
:1018B000EAE741F2581240F82310C1F6FF72DCE764
:1018C0002DE9F04F42F294038BB042F298024FF4AC
:1018D000035142F2C4004FF4025B42F29009C4F299
:1018E0000703C4F20702C4F20701C4F20700C4F2FE
:1018F000070BC4F20709019302920591069051E08B
:1019000040F200059E08C1F6FF7505EBC607441EB0
:101910007A6803F00803E4B2A2F1080003F0FF0EB6
:10192000002B40F0A88055F836301B0C99B222F8F5
:10193000081C002B00F0928041F2F40CC1F6FF7CF1
:1019400022F806EC5CF8243042F804EC41F2A008DE
:10195000002B00F0BB83C1F6FF7858F824305860A4
:1019600041F2EC4AC1F6FF7A48F824003AF8142014
:1019700011442AF8141000F07BFE002800F0AB831D
:10198000C822882317F0080FC0F24002C0F24003BB
:1019900000F1080018BF1346786045F83630082378
:1019A0008BF800309BF80040E4B2630723D541F286
:1019B0007C13C1F6FF731B78D3B141F20513C1F656
:1019C000FF73197801F0FF0221B1013AD2B21A7007
:1019D00002B900BE41F28413C1F6FF73197801F019
:1019E000FF0229B1013AD2B21A70002A00F0218315
:1019F00004238BF8003004F0080303F0FF02002BEF
:101A000000F0BC8099F80030DBB218097FF478AFA1
:101A100040F200049A08C1F6FF7404EBC20154F8C6
:101A200032304968C3F38303092B00F0C78053D8D1
:101A3000013B012B0ED841F26813C1F6FF7342F24D
:101A400021001B88834200F04982C823C0F2400372
:101A500044F83230019A01231370A0E7C82288238A
:101A600017F0080FC0F24002C0F2400318BF13463F
:101A700045F8363093E700F01FFE41F24812C1F6F8
:101A8000FF7252F82410002900F0388341F28010D0
:101A9000C1F6FF704B6810F804E042F82430BEF144
:101AA000010F01F108037B6000F02583C0F0208363
:101AB000BEF1020F00F01983BEF1030F01D1042320
:101AC000035517F0080F0A880CBF8823C82343EA80
:101AD000024345F8363062E70D2BBBD1D1F800E068
:101AE000D1F804C0C823C0F2400341F2681741F2A4
:101AF0009C0641F2041544F83230C1F6FF77C1F676
:101B0000FF76C1F6FF751FFA8EF340F28162012164
:101B100093422061A061C7F804C0C7F800E03060BC
:101B2000297000F29280B3F5D06F80F0B483B3F5E2
:101B3000817F00F0258300F20183802B00F0C883B1
:101B4000822B40F02383BB8803F07F03042B00F239
:101B50001D834FF4035141F274129B00C1F6FF72D2
:101B6000C4F2070119440023137053700B789B07CC
:101B700040F1A18401231370022169E3E00700F121
:101B80005B82210600F1CA82A2070CD542F28803CB
:101B9000C4F207034FF402511A78C4F20701D2B21B
:101BA00002201A700870E30605D54FF40253C4F200
:101BB000070310221A700BB0BDE8F08F41F29C06AB
:101BC000C1F6FF7632688AB341F2B00EC1F6FF7EED
:101BD00041F2041541F27013C1F6FF75C1F6FF73AF
:101BE000BEF800102F78187840298C4640F0020883
:101BF00028BF4FF0400C002F87F001072F70CCEB6F
:101C000001010CBF8825C82504EBC80789B280F004
:101C1000010045EA0C457A60AEF8001044F83850EF
:101C200062441870002900F05481326041F2681358
:101C3000C1F6FF731A88B2F5A06F7FF40BAF0021D5
:101C40009A785970029B1A7004E742F2210293427B
:101C500000F0EB8100F27581B3F5086F00F0EE82C1
:101C6000B3F5106F40F0928241F27C12C1F6FF7220
:101C7000236AB97811701F0640F20002C1F6FF72A4
:101C800000F1DF83A26A40F200031006C1F6FF7381
:101C900000F1D283226B40F200031106C1F6FF73FC
:101CA00000F1C583A26B40F200031206C1F6FF7378
:101CB00000F1B883226C40F200031706C1F6FF73EF
:101CC00000F1AB83A26C40F200031006C1F6FF7373
:101CD00000F1E083226D40F200031106C1F6FF73AC
:101CE00000F1D383A26D40F200031206C1F6FF7328
:101CF00000F1C683226E40F200031706C1F6FF739F
:101D000000F1B983A26E40F200031006C1F6FF7322
:101D100000F1AC83226F40F200031106C1F6FF739D
:101D200000F19F83A26F40F200031206C1F6FF7319
:101D300000F19283D4F8802040F200031706C1F628
:101D4000FF7300F18383D4F8882040F2000310066B
:101D5000C1F6FF7300F1A983D4F8902040F200038C
:101D60001106C1F6FF7300F19A83D4F8982040F26F
:101D700000031206C1F6FF7300F1498341F2F40338
:101D800041F2481241F2581141F2801041F2A0088C
:101D900041F2EC4AC1F6FF73C1F6FF72C1F6FF7162
:101DA000C1F6FF70049403960795CDF820B0C1F6F4
:101DB000FF78C1F6FF7A0746002416461D468B467B
:101DC000CDF824902868A14630B1446800F074FC36
:101DD0002046002CF9D14C46306800232B6048F88F
:101DE0002430A14630B1446800F066FC2046002C47
:101DF000F9D14C463B780022032B32604BF8042B80
:101E00002AF8142000F0B88140F2EF81042B00F092
:101E1000EF81052B00F0B0810134042C05F104059D
:101E200006F1040607F10107CCD144F2287741F20C
:101E30007118C0F20007C1F6FF7800223B7888F8DD
:101E40000020069A049C039E079DDDF820B0DDF873
:101E5000249013701B0700F185827B7842F2C80240
:101E6000C4F20702002140F2000A18072163A163AF
:101E7000C1F6FF7A137000F1AE82BB7842F2CC0259
:101E80000021C4F207022165A16540F2000A19078A
:101E90001370C1F6FF7A00F1818242F2D002FB7822
:101EA000C4F20702002140F200072167A167137006
:101EB0001A07C1F6FF7700F135822B7807931A468F
:101EC00082F0010200230392C4F89030C4F89830E5
:101ED00050E0BCF1400F18BF0022A6E641F2F443E7
:101EE000C1F6FF730D7848781D7058708D78C878EA
:101EF0009D70D87018680D791D7186284D79897983
:101F00005D71997100F08B8141F2701341F20415FB
:101F1000C1F6FF73C1F6FF751978287881F00106C4
:101F2000002841F002011E700CBF8823C82344F82A
:101F3000313004EBC10180F00100002328704B60B8
:101F400083E542F22122934240F0D48141F2980E7F
:101F5000C1F6FF7E41F2FC4241F29413C1F6FF72DA
:101F6000C1F6FF73DEF800E0BF78C2F800E003902E
:101F700007911F700021079F089108468C460A466A
:101F800041F27013C1F6FF73002F1F78049747F0DA
:101F9000020E04EBCE0A08BF4FF08808CAF80420EE
:101FA00018BF4FF0C8083A4648EA000041F2041A48
:101FB00040F2000882F0010244F83E009DF80C70E7
:101FC0002F7041F27010C1F6FF78C1F6FF7A1A70D7
:101FD000C1F6FF70002940F0E080BCF1400F24D131
:101FE00042F0020204EBC204089F6760039C40F2C7
:101FF0000000C1F6FF704FEA014E002C40F0E78070
:102000009DF81C402C704EF0880E9DF8104040F852
:1020100032E00F441C703C46402906D1002141F2B9
:10202000B003C1F6FF7334601980019A0123137065
:1020300010E500F02BFDDBE442F2940441F2701154
:10204000C4F20704C1F6FF71022040F200032070C1
:10205000C1F6FF730A7041F2B401C1F6FF71596015
:1020600041F20811C1F6FF71D9604FF4035C882179
:10207000C0F24001C4F2070C42F2880E1960996068
:102080001A619A61C4F2070E0D234FF4025742F20F
:10209000980642F28C0542F284008CF80030C4F2BB
:1020A0000707FF23C4F20706C4F20705C4F20700BE
:1020B0008EF8003001214FF09F0E3B7032702B7074
:1020C00080F800E021700BB0BDE8F08F4CF82400E0
:1020D000C1F6FF7844E441F27113C1F6FF7345F88D
:1020E00036001A7801321A7059E405230355E8E4E2
:1020F00003230355E5E402230355E2E441F2801390
:10210000C1F6FF731A5D022A00F08680FFF447AC27
:10211000032A40F08B8001221A5540E44FF4035209
:10212000C4F207024FF40253C4F207030D201070EB
:102130008021A20719707FF536AD27E540F2023203
:10214000934240F0CE80BB8803F07F0341F26812D7
:10215000042BC1F6FF7219D85188B9B94FF4035254
:102160009B00C4F207021A440391137843F0020360
:10217000137001230793FDE64FF001033B704BE61C
:10218000BB8803F07F03042B40F2B980059A0F232C
:102190001370019A012313705CE440297FF620AF8D
:1021A00042F0020208EBC203089C5C60039B1BB375
:1021B0009DF81C508AF80050C823C0F240039DF8D7
:1021C000105005704039403448F8323027E79DF808
:1021D0001C402C709DF810401C70089B4EF0C80EDF
:1021E0000B441C4640F832E016E7022B7FF414AE95
:1021F0004FF000033B700FE69DF81C408AF800404A
:102200009DF8104004708823089CC0F240034039B8
:10221000403448F8323002E71955FFF7C0BB41F2AD
:102220000513C1F6FF730F2119706DE617F0080F43
:102230000CBF022203221A55FFF7B1BB41F27C13F7
:10224000C1F6FF7341F27412C1F6FF721B7813706E
:10225000F888884280F0668141F27013C1F6FF73FE
:1022600040281978049141F0020E04EBCE01844617
:1022700028BF4FF0400C02EB0C074A60002203928B
:102280000122CCEB0001079208974FEA0C404FF077
:10229000C808049A88E644F22C73C0F200035A6816
:1022A000002A3FF473AF7888B7F804E004E00C33F9
:1022B0005A68002A3FF46AAF19888142F7D15988D9
:1022C0007145F4D1000A03280CBF11781989BFE7C2
:1022D00041F27412C1F6FF72002313705370022191
:1022E000B6E7B3F5A06F7FF451AF0023039301234A
:1022F00007933FE642F221329342F6D046E77A88CE
:10230000002A7FF443AF4FF403529B00C4F207024C
:102310001A4400230393137823F00203137001235C
:10232000079327E600F0A4F9002800F0CE8000F122
:1023300008038820C7F88430C0F24000C4F8800049
:1023400000F096F940F20003C1F6FF73002800F098
:10235000B480C8220830C0F24002C3F88C00C3F831
:102360008820AAE500F084F9002800F0BB8000F185
:10237000080388206362C0F24000206200F078F910
:1023800040F20003C1F6FF73002800F0A480C822C9
:102390000830C0F24002D8629A625EE500F068F947
:1023A000002800F0B98000F108038820CAF86430E2
:1023B000C0F24000206600F05BF940F20003C1F675
:1023C000FF73002800F0A180C8220830C0F240024C
:1023D000D8669A6661E500F04BF9002800F08F801E
:1023E00000F108038820CAF84430C0F2400020649D
:1023F00000F03EF940F20003C1F6FF73002877D0E9
:10240000C8220830C0F24002D8649A6435E5D3F897
:102410009C00083800F050F9B0E4586C083800F01F
:102420004BF94FE4D86B083800F046F942E4586B9A
:10243000083800F041F935E4D86A083800F03CF972
:1024400028E4506A083800F037F91BE4D3F8840018
:10245000083800F031F976E4D86F083800F02CF92C
:1024600068E4586F083800F027F95BE4D86E083844
:1024700000F022F94EE4586E083800F01DF941E4EE
:10248000D86D083800F018F934E4586D083800F0B9
:1024900013F927E4D86C083800F00EF91AE4D3F8E1
:1024A0009400083800F008F95FE4D3F88C0008388D
:1024B00000F002F950E40221CAE698F80020C3F8BF
:1024C0008800531C88F80030F7E498F80030013396
:1024D00088F8003032E798F800209862531C88F89A
:1024E0000030BAE498F80030013388F8003044E74F
:1024F00098F800209864531C88F80030BDE498F8E0
:102500000030013388F8003071E798F800209866B1
:10251000531C88F80030C0E498F80030013388F884
:10252000003047E740298C4628BF4FF0400C02EBB3
:102530000C030893002303930123CCEB01014FEA22
:102540000C4007931F461BE5F8B501F015FA40F261
:10255000000348F23400C1F6FF73C4F20400002205
:102560001A605A609A60DA601A615A619A61DA6197
:102570001A625A629A62DA621A635A639A63DA6377
:102580001A645A649A64DA641A655A659A65DA6557
:102590001A665A669A66DA661A675A679A67DA6737
:1025A000C3F880200468C3F884204FF45841C4F273
:1025B000000144F480240460086842F2441EC4F21E
:1025C000070E40F040704FF405570860C4F207074B
:1025D000032142F29C068EF80010C4F20706A021E7
:1025E00042F2B00542F2B4043970C4F20705C4F2F5
:1025F0000704C3F3072C4FF4025042F2880186F817
:1026000000C0C4F20700C3F30746C4F207011B0E63
:1026100042F2100E2E70C4F2070E237042F294079D
:10262000FF234FF404560370C4F207070B70C4F283
:10263000070642F284054EF235444EF2041042F28F
:1026400008118EF80030C4F207050123CEF2000411
:10265000CEF20000C4F207013B70327070274FF4D5
:10266000001610222B70277006600A70F8BD00BF9C
:1026700072B640F27472C1F6FF721168B1FA81F35A
:102680000B2B16DC4FF00040D84021EA000110B4BB
:10269000116062B640F2D03203EBC303DB00C1F637
:1026A000FF72D1180024D45008464C605DF8044BEA
:1026B000704762B60020704740F2D033C1F6FF7316
:1026C00048F63962C31AC3F6E302A2FB03231B09CF
:1026D0000B2B12D841F27112C1F6FF7212786AB94F
:1026E00072B640F27472C1F6FF724FF0004011688A
:1026F00020FA03F31943116062B6704741F27C126D
:10270000C1F6FF721278002AEAD0FFF725B800BFA1
:1027100038B541F29014C1F6FF74206878B143884F
:102720000288C118013393420D7A02D243802846B1
:1027300038BDFFF7C1FF00232846236038BD41F2B2
:102740007C13C1F6FF731B782BB10320FEF7CEFF7D
:1027500020600028E3D14FF0FF3038BD10B541F2C2
:102760009014C1F6FF74206818B143881844007AA9
:1027700010BD41F27C13C1F6FF731B782BB103200F
:10278000FEF7B4FF20600028EFD14FF0FF3010BDFE
:1027900041F29012C1F6FF7241F2EC43C1F6FF73B1
:1027A000126898881AB1138852889B1A1844704787
:1027B00041F27C13C1F6FF731B78B3B110B541F23F
:1027C0009014C1F6FF74206848B1FFF775FF00232D
:1027D00003202360FEF78AFF30B1FFF76DFF03206F
:1027E000FEF784FF0028F8D110BD70472DE9F04FA7
:1027F00041F2851B83B0C1F6FF7B01238BF80030CB
:10280000009100297CD041F28818C1F6FF78044677
:1028100041F27C17D8F80000CDF804B00E46C1F69E
:10282000FF77002800F08A8041F28C15C1F6FF7511
:10283000B0F802E0CEF14002B24228BF32460EEBC1
:10284000020189B200F108034FF0000AB61A418074
:1028500002F1FF3C734485F800A0002A44D00EF139
:1028600008010EF10C0E251D01448644A94238BF13
:1028700074452CBF01250025092A94BF002505F0C9
:102880000105002D51D044EA0105AD074DD1A2F15B
:10289000040E4FEA9E0E0EF1010EBCF1020F4FEA3C
:1028A0008E0940D955469B46A4F1040A01355AF8D1
:1028B000043F41F8043BAE45F8D85B464A454B44DB
:1028C000C9EB0C0C04EB09016DD00D781D70BCF147
:1028D000000F26D04D785D70BCF1010F21D08978B2
:1028E00099702244418814463F2910D841F284133C
:1028F000C1F6FF7305221A70002E92D1DDF804B0E4
:10290000009800238BF8003003B0BDE8F08F40231F
:10291000038001460420FEF789FF0020C8F800006C
:10292000E4E72244DEE72146CFE7013B224414F8E6
:10293000011B03F8011F9442F9D1D3E73B78A3B3FD
:1029400044F6210941F28C15C0F20109C1F6FF7568
:102950004FF0010ADDF804B008E0B9F101091BD01D
:102960002B78CBB900F01AFB3B7803B30420FEF7B9
:10297000DDFE0728F1D88BF800A0FFF779FEC8F834
:10298000000000287FF454AF41F28513C1F6FF73B5
:10299000B9F101091870E3D101234FF0FF302B701A
:1029A00003B0BDE8F08F0A469CE7DDF804B00023D1
:1029B0004FF0FF308BF8003003B0BDE8F08F00BF60
:1029C00000B583B002AB012103F8010D1846FFF7F3
:1029D0000DFF03B05DF804FB38B541F28815C1F670
:1029E000FF7541F28514C1F6FF7428680123237036
:1029F00028B1408800232370C0F1400038BD41F267
:102A00007C13C1F6FF731B7813B90020207038BD0A
:102A10000420FEF78BFE0728F7D8FFF729FE286071
:102A20000028E6D1F1E700BFF8B541F27C13C1F60A
:102A3000FF731B78D3B141F28815C1F6FF7541F2DF
:102A40008514C1F6FF742E68012727707EB141F20C
:102A50008413C1F6FF73002772881F7031463280DD
:102A60000420FEF7E3FE2F6000232370F8BDFFF77C
:102A7000FFFD41F28413C1F6FF7328B10146042023
:102A80001E70FEF7D3FEEFE71F70EDE738B541F299
:102A90008513C1F6FF731B78A3B941F28814C1F600
:102AA000FF74216879B103F0FF054B880B80042087
:102AB000FEF7BCFE256038BD41F28413C1F6FF73FA
:102AC00001221A7038BDFFF7D3FD0028F4D001466B
:102AD000BDE838400420FEF7A9BE00BF10B4EFF3F4
:102AE000108272B6437F33B9017F012908D00329D0
:102AF00016D00123437702B962B65DF8044B7047E4
:102B000041F2A811C1F6FF710C6804B341F2A4119F
:102B1000C1F6FF7143610B68836108605861E8E7A3
:102B200041F29811C1F6FF710C68CCB141F29C11D1
:102B3000C1F6FF7143610B688361086058614EF60E
:102B40000453CEF200034FF080511960D1E741F2F7
:102B5000A413C1F6FF734461846108601860C8E77C
:102B600041F29C13C1F6FF734461846108601860F0
:102B7000E5E700BF70B5EFF3108272B641F298142A
:102B8000C1F6FF74206898B141F29C16C1F6FF7639
:102B900000254369236073B19D6102B962B6457730
:102BA00083689847EFF3108272B620680028F0D14E
:102BB00002B962B670BD3360EFE700BF2DE9F8439C
:102BC00041F2A016C1F6FF763468002C38D0236895
:102BD000002B33D140F6754941F298174EF6045850
:102BE0001D46C0F20009C1F6FF77CEF20008A368C7
:102BF00003B1DD6020693360036825751B684B45B0
:102C000070D1037F4560022BC4606FD0EFF3108258
:102C100072B6437F43B9017F012900F096800329F2
:102C200000F0A6800123437702B962B66368002BE7
:102C300042D1346824B12368002BD8D0013B2360F3
:102C4000EFF3108272B641F2B013C1F6FF730021A8
:102C50001868196002B962B6002800F0C1804FF010
:102C600000083568C4464FF0020E0EE0CB1A8560AE
:102C7000C0F80CC001462B60E8604FF0010880F8F6
:102C800014E00D463846002F54D08768002D56D0EA
:102C9000036829688B42E9D32C4603E011688B4214
:102CA000144638D3A2685B1A0360002AF6D182600A
:102CB000C4602946A060E2E73068236041F2A012B8
:102CC000C1F6FF72002872D001688B4211D2CB1A74
:102CD000A060E5600360C460146020460223237591
:102CE0000446A8E72246002198479FE78368984753
:102CF0009CE7864603E011688B42964648D3DEF88F
:102D000008205B1A2360002AF5D1A260C4F80CE009
:102D1000CEF80840E2E7D268C2608460E060C26832
:102D2000CB1A294690600D46236080F814E038469F
:102D3000002FAAD1B8F1000F54D1BDE8F883856007
:102D4000C56001464FF0010899E741F2A811C1F6AC
:102D5000FF71D1F800E0BEF1000F2DD041F2A411B7
:102D6000C1F6FF7143610B6883610860586159E7E0
:102D7000396861B341F29C11C1F6FF7143610B6880
:102D80008361086058614FF08053C8F8003049E70C
:102D9000D268E260C4F808E0CEF80C40E268CB1AD2
:102DA00002219460CEF800302175044643E7A0600C
:102DB000E0601460204691E741F2A413C1F6FF736E
:102DC000C0F814E0C0F818E0086018602AE741F283
:102DD0009C13C1F6FF734161816138601860D2E7CE
:102DE000BDE8F8833160BDE8F88300BF41F2980385
:102DF000C1F6FF731A6801321A60FFF7DFBE00BF29
:102E000008B5FDF733FBFDF74DFB00F0C7F8FAE717
:102E100070B500298AB00CDB3ED130238DF8253007
:102E200001222121036801AC5B68214498470AB064
:102E300070BD4CF6CD434942CCF6CC43A3FB0123F5
:102E4000DB0803EB8302A1EB420130318DF8251042
:102E5000B3B32D264CF6CD45CCF6CC452122A5FBAF
:102E60000341C90801EB8104013AA3EB4403D2B248
:102E70000AAC1444303304F8243C0B460029EED14C
:102E800006B3013AD2B20AAB134411462D2203F81D
:102E9000242CC1F12202C5E74CF6CD43CCF6CC433D
:102EA000A3FB0123DB0803EB8302A1EB42013031DA
:102EB0008DF825100BB10026CCE701222121B1E7C6
:102EC0002122DEE71146C2F12202ABE700B544F24F
:102ED000FC63C0F2000383B002681B88ADF80430C5
:102EE00001A953680222984703B05DF804FB00BFB4
:102EF000F0B507468BB0002A33D0012A08BF0A225A
:102F000051B3212400E0F4B2B1FBF2F502FB15113C
:102F1000C8B2092900F1300198BFC8B20AA988BF18
:102F20003730214488BFC0B201F8240C661E294600
:102F3000002DE8D133B1013CE4B20AAB23442D2289
:102F400003F8242C3B6801AA11195B683846C4F1C8
:102F5000220298470BB0F0BD30228DF825202124A5
:102F6000E8E70368C9B21B6898470BB0F0BD00BF23
:102F7000FFF71EBCFFF7F2BBFFF7CABBFFF708BCA9
:102F8000FFF752BDFFF728BD08461146FFF72EBCDC
:102F90000846FFF715BD00BF704700BF38B541F2C6
:102FA000B414C1F6FF74237803B138BD0123237034
:102FB000FFF7EEFB002849D100F01AF9002842D1B2
:102FC00000F0C4F900283BD100F06EFA002834D19B
:102FD00000F002FB70BB00F097FB40BB00F02CFC44
:102FE00010BB00232370EFF30583002BDDD1EFF33B
:102FF000108172B641F2A813C1F6FF73186840B38E
:1030000041F2AC14C1F6FF74227812BB45691D6011
:10301000012323700DB3AA6101B962B6002545777B
:10302000836898472570C0E700F022FDD9E700F0DB
:103030001DFDD3E700F018FDCDE700F013FDC7E755
:1030400000F00EFDC0E700F009FDB9E7FFF7A4FFAF
:10305000B2E70029A9D162B638BD41F2A413C1F686
:10306000FF731D600029D9D1D7E700BF30B44FF4FA
:10307000804144F20102C4F20701C4F2070240F2A7
:1030800088736024E120C1F6FF730C7010701B7808
:103090004BF20805082B4BF20C04294654D00A2B9E
:1030A00062D00C2B2346C4F20305C4F20304C4F21D
:1030B0000B01C4F20B030CBF35205D2012222860E7
:1030C000226008601A6041F2B613C1F6FF734BF23A
:1030D00020011B783BB30B46C4F20B03C4F203017F
:1030E00001220A601A6040F28973C1F6FF734BF245
:1030F00024011B78012B4BD9042B1CD9082B3ED95A
:10310000102B0B46C4F20B03C4F2030194BF8622BA
:1031100087220A601A6041F2B513C1F6FF730122DB
:103120001A7030BC70470A46C4F20B02C4F20301A5
:103130000B601360D7E70B46C4F20B03C4F2030124
:1031400084220A601A60E6E72346C4F20305C4F24B
:103150000304C4F20B01C4F20B03212013222860E4
:10316000226008601A60AEE72346C4F20305C4F289
:103170000304C4F20B01C4F20B033920EEE70B4643
:10318000C4F20B03C4F2030185220A601A60C2E78D
:103190000B46C4F20B03C4F2030180220A601A60DA
:1031A000B9E700BFF0B44D1E2E46002400E0013404
:1031B000B0FBF2F302FB1300092800F130078ABFCD
:1031C0003730F8B2C0B206F8010F1846002BEED126
:1031D0000A1953704CB1107815F8016F287001333B
:1031E000E01A834202F80169F5DB0846F0BC70473B
:1031F00041F2402241F2BD13C1F6FF72C1F6FF73E6
:1032000010781B78C0B2DBB2984238BF4030C01A89
:10321000704700BFF0B44FF42043C4F206031A799C
:1032200012F0300F38D072B6997D01F0FF020029FC
:1032300058D062B641F2402741F2BD11C1F6FF7786
:10324000C1F6FF713C780D7841F200261846E4B2D1
:10325000EDB2C1F6FF76631C402BC17928BF002375
:10326000AB4202F1FF32C9B21CBFF1541C4612F04E
:10327000FF02F0D141F2B812C1F6FF72E3B2126858
:103280003B704AB1AC4236BFC5F14005641B6419BE
:10329000272CC4BF012313704FF42042C4F206024E
:1032A000D178C9B20D0622D44A0619D54FF420436D
:1032B000C4F206031B795B0612D541F24422C1F623
:1032C000FF7241F2BC13C1F6FF731268002119703E
:1032D00002B111704FF42043C4F206033C22DA70AD
:1032E000F0BC70474022D9795A7462B6D4E713799A
:1032F0001C06D9D541F2482341F24126C1F6FF739D
:10330000C1F6FF761C783378E4B2DBB29C4211D070
:1033100041F2C015C1F6FF7501E0A3420AD00133A6
:10332000402B28BF00231079E85CC0B2D071107D1B
:103330000728F2D94FF42042DBB2C4F20602337000
:103340001379180644BF7C23D370ADE741F2BC2249
:1033500041F25123C1F6FF72C1F6FF7310781B785A
:10336000C0B2DBB2984238BF4030C01A704700BFCD
:10337000F0B44FF43043C4F206031A7912F0300F60
:1033800038D072B6997D01F0FF02002958D062B69C
:1033900041F2BC2741F25121C1F6FF77C1F6FF711E
:1033A0003C780D7841F27C261846E4B2EDB2C1F6C5
:1033B000FF76631C402BC17928BF0023AB4202F18A
:1033C000FF32C9B21CBFF1541C4612F0FF02F0D10B
:1033D00041F24C22C1F6FF72E3B212683B704AB16F
:1033E000AC4236BFC5F14005641B6419272CC4BF2D
:1033F000012313704FF43042C4F20602D178C9B2EF
:103400000D0622D44A0619D54FF43043C4F2060300
:103410001B795B0612D541F2C022C1F6FF7241F260
:103420005023C1F6FF7312680021197002B11170A8
:103430004FF43043C4F206033C22DA70F0BC70470C
:103440004022D9795A7462B6D4E713791C06D9D5CB
:1034500041F2C42341F2BD26C1F6FF73C1F6FF76E7
:103460001C783378E4B2DBB29C4211D041F254258F
:10347000C1F6FF7501E0A3420AD00133282B28BF13
:1034800000231079E85CC0B2D071107D0728F2D912
:103490004FF43042DBB2C4F20602337013791806DF
:1034A00044BF7C23D370ADE741F2383241F2CD23E3
:1034B000C1F6FF72C1F6FF7310781B78C0B2DBB2A1
:1034C000984238BF4030C01A704700BF30B44FF444
:1034D0004043C4F206031A7994062ED541F23832DD
:1034E000C1F6FF72D879137841F2CD21C1F6FF7190
:1034F00001333F2B0978C8BF00238B42C0B206D0EE
:1035000041F2F824C1F6FF74D9B2E054117041F2CF
:10351000C822C1F6FF72116879B141F23932C1F6A1
:10352000FF721278D2B2934236BFC2F140029B1AA8
:103530009B18272BC4BF01230B704FF44042C4F2E9
:103540000602D378DBB218061DD45A0619D54FF4FB
:103550004043C4F206031B795B0612D541F23C32AC
:10356000C1F6FF7241F2CC23C1F6FF73126800214D
:10357000197002B111704FF44043C4F206032C22BB
:10358000DA7030BC704711790906DED541F240315E
:1035900041F23930C1F6FF71C1F6FF700C78017845
:1035A000C9B28C4214D04A1C272A88BF002541F298
:1035B000D02188BF2A46C1F6FF7198BFD5B24FF41B
:1035C00040448A5CC4F20604D2B2E2710570BCE7E2
:1035D0006C21D170B9E700BF41F2B43241F24933F6
:1035E000C1F6FF72C1F6FF7310781B78C0B2DBB270
:1035F000984238BF4030C01A704700BF30B44FF413
:103600005043C4F206031A7994062ED541F2B4321F
:10361000C1F6FF72D879137841F24931C1F6FF71D2
:1036200001333F2B0978C8BF00238B42C0B206D0BC
:1036300041F27434C1F6FF74D9B2E054117041F212
:103640004432C1F6FF72116879B141F2B532C1F668
:10365000FF721278D2B2934236BFC2F140029B1A77
:103660009B18272BC4BF01230B704FF45042C4F2A8
:103670000602D378DBB218061DD45A0619D54FF4CA
:103680005043C4F206031B795B0612D541F2B832EF
:10369000C1F6FF7241F24833C1F6FF731268002190
:1036A000197002B111704FF45043C4F206032C227A
:1036B000DA7030BC704711790906DED541F2BC31B1
:1036C00041F2B530C1F6FF71C1F6FF700C78017898
:1036D000C9B28C4214D04A1C272A88BF002541F267
:1036E0004C3188BF2A46C1F6FF7198BFD5B24FF45E
:1036F00050448A5CC4F20604D2B2E2710570BCE7A1
:103700006C21D170B9E700BF41F2304241F2C533BC
:10371000C1F6FF72C1F6FF7310781B78C0B2DBB23E
:10372000984238BF4030C01A704700BF30B44FF4E1
:103730002043C4F20E031A7994062ED541F230428A
:10374000C1F6FF72D879137841F2C531C1F6FF7125
:1037500001333F2B0978C8BF00238B42C0B206D08B
:1037600041F2F034C1F6FF74D9B2E054117041F265
:10377000C032C1F6FF72116879B141F23142C1F62F
:10378000FF721278D2B2934236BFC2F140029B1A46
:103790009B18272BC4BF01230B704FF42042C4F2A7
:1037A0000E02D378DBB218061DD45A0619D54FF491
:1037B0002043C4F20E031B795B0612D541F234425A
:1037C000C1F6FF7241F2C433C1F6FF7312680021E3
:1037D000197002B111704FF42043C4F20E032C2271
:1037E000DA7030BC704711790906DED541F23841F4
:1037F00041F23140C1F6FF71C1F6FF700C780178DB
:10380000C9B28C4214D04A1C272A88BF002541F235
:10381000C83188BF2A46C1F6FF7198BFD5B24FF4B0
:1038200020448A5CC4F20E04D2B2E2710570BCE797
:103830006C21D170B9E700BF41F2AC4241F2414383
:10384000C1F6FF72C1F6FF7310781B78C0B2DBB20D
:10385000984238BF4030C01A704700BF30B44FF4B0
:103860008043C4F20C035A6894022ED541F2AC4254
:10387000C1F6FF72D868137841F24141C1F6FF7179
:1038800001333F2B0978C8BF00238B4207D041F298
:103890006C44C1F6FF74C0B2D9B2E054117041F269
:1038A0003C42C1F6FF72116879B141F2AD42C1F6F6
:1038B000FF721278D2B2934236BFC2F140029B1A15
:1038C0009B18272BC4BF01230B704FF48043C4F215
:1038D0000C039A68100202D55B6819021DD45202CB
:1038E00019D54FF48043C4F20C035B685B0212D518
:1038F00041F2B042C1F6FF7241F24043C1F6FF739C
:1039000012680021197002B111704FF4AC73C4F247
:10391000883300221A6030BC704741F2B44341F250
:10392000AD41C1F6FF73C1F6FF7118780B78DBB2B9
:10393000984214D00133272B88BF002541F2444020
:1039400088BF2B46C1F6FF7098BFDDB24FF48044AC
:10395000C35CC4F20C04DBB2E3600D70BFE74FF44C
:10396000AE714FF4AC73C4F28831C4F288330024D2
:1039700001200C601860B2E710B584B072B6FDF794
:1039800007FC00230421C4F20203C4F20201002058
:103990007022C4F2071080241A7008601A461C7046
:1039A00013781B06FCD50C23C4F202031C68FDF738
:1039B0000FFC62B649F27F63C0F298039C429CBF41
:1039C00004EB840464000A22204601A9FFF7EAFB05
:1039D0009DF8042040F61803C1F6FF7352B39DF81A
:1039E00005105A8061B39DF80620998052B39DF866
:1039F0000710DA8041B39DF80820198132B39DF891
:103A000009105A8121B39DF80A20998112B39DF8BB
:103A10000B10DA8101B39DF80C2019824AB19DF890
:103A20000D105A82092229B1162299821A7004B007
:103A300010BD082201325200D2B21A7004B010BD7B
:103A40000122F7E70222F5E70322F3E70422F1E778
:103A50000522EFE70622EDE70722EBE7704700BFFC
:103A6000704700BF704700BF704700BF704700BF7E
:103A7000704700BF014B1868704700BF580CFF1F0C
:103A800070B50F4E0F4D761BB61018BF002405D031
:103A9000013455F8043B9847A642F9D10A4E0B4D24
:103AA000761B00F06FFEB61018BF002406D001345C
:103AB00055F8043B9847A642F9D170BD70BD00BFD0
:103AC00090470000904700009C470000904700008E
:103AD000024B0146186800F003B800BF580CFF1FE6
:103AE0002DE9F04F01F10B05162D83B0064640F28B
:103AF0009F8035F0070500F1BF80A94200F2BC802D
:103B000000F0A6FAB5F5FC7FC0F09C826B0A00F0CD
:103B1000BA80042B00F28381A80900F1390E4FEA24
:103B20004E033830C44F07EB8303A3F108015C68F0
:103B3000A14207D1ACE0002A80F2AC80E468A14247
:103B400000F0A680636823F003035A1B0F2AF2DDFE
:103B5000B9493C6901F1080E744500F0B38163680E
:103B600023F003035A1B0F2A00F39981002AC1F89E
:103B700014E0C1F810E080F29E80B3F5007F80F081
:103B80006781DB0803F1010C01229B1002FA03F3A9
:103B90004A6851F83C80C4F8088001EBCC091A430C
:103BA000A9F10803E3604A6041F83C40C8F80C40C2
:103BB000831001249C40944200F28A80144206D172
:103BC00020F003006400144200F10400FAD007EB77
:103BD000C009CC468046DCF80C108C4507D173E157
:103BE000002A80F28181C9688C4500F06D814B68A4
:103BF00023F003035A1B0F2AF2DD0C46D1F80CC048
:103C000054F8088F4B1945F001054D6042F0010151
:103C1000C8F80CC03046CCF808807B613B61C3F823
:103C20000CE0C3F808E059609A5000F013FA1FE066
:103C3000102921D800F00CFA1025062302207E4F0F
:103C400007EB8303A3F108025C68944200F045810E
:103C50006368E168A56823F00303234430465A688B
:103C6000E96042F001028D605A6000F0F3F9083417
:103C7000204603B0BDE8F08F00240C2320463360BB
:103C800003B0BDE8F08F80234FF0400E3F2049E79E
:103C900070465DE72344E1685A68A56842F0010276
:103CA000E96030468D605A6000F0D4F9083420464F
:103CB00003B0BDE8F08F234430465A6842F0010259
:103CC0005A6000F0C7F90834204603B0BDE8F08F11
:103CD000BC68636823F00308A84504D3C5EB080358
:103CE0000F2B00F38C80554BDFF860911A68D9F8E0
:103CF000003001332A4404EB080A00F0608102F529
:103D000080520F3222F47F6222F00F0211463046B9
:103D1000019200F0A1F9B0F1FF3F8346019A00F053
:103D20005881824500F2FC80454B1968DA45114400
:103D3000196000F05381D9F80000DFF810E101307C
:103D40001BBFCAEB0B0A5144CEF800B019601BF040
:103D5000070100F01781C1F10800C1F580518344CB
:103D600008315A44C2F30B02C2EB010949463046FE
:103D7000019300F071F9431C019B00F03F81CBEBF4
:103D800000024A4442F001021968C7F808B04944E9
:103D9000BC42CBF804201960DFF8A49016D0B8F12B
:103DA0000F0F40F2FD806268A8F10C0323F00703B7
:103DB000E01802F001024FF0050E1A430F2B62606B
:103DC000C0F804E0C0F808E000F21C811D4BBC689C
:103DD0001A68914288BF19601B4B1A689142626849
:103DE00088BF196022F003029542A2EB050301D8B7
:103DF0000F2B04DC304600F02DF9002438E762195F
:103E000043F0010345F0010565603046BA60536038
:103E100000F020F90834204603B0BDE8F08F142BE1
:103E200071D9542B00F2A480280B00F16F0E4FEAD9
:103E30004E036E3076E600BF5C0CFF1FC014FF1F00
:103E4000C414FF1FBC14FF1FB814FF1F6810FF1F0E
:103E50005A0A042A5ED9142A00F2B38002F15C01E6
:103E600049005B3207EB810C57F82110DFF8DC8149
:103E7000ACF1080C8C4500F088804A6822F00302FF
:103E8000934202D289688C45F7D1D1F80CC07A6888
:103E9000C4F80CC0A160CCF80840CC6088E6631977
:103EA00042F0010745F00105656030464B610B614A
:103EB000C3F80CE0C3F808E05F609A50083400F0E3
:103EC000C9F8D5E64A6873E608F1010818F0030F4F
:103ED0000CF1080C7FF47FAE30E0DC68A34208BF31
:103EE00002303FF435AEB3E60B440C465A68C9685D
:103EF00054F8085F42F001025A603046E9608D6074
:103F000000F0A8F8B4E603F15C0E03F15B004FEAA1
:103F10004E0307E69A0902F1390149003832A1E758
:103F2000BC424A4B3FF400AF9C68626822F0030237
:103F30005AE759F80839994540F0828010F0030F8C
:103F400000F1FF30F5D17B6823EA04037B60640055
:103F50009C423FF6BDAE002C3FF4BAAE1C42404638
:103F60007FF435AE64001C4200F10400FAD02EE666
:103F7000B3F5AA7F18D8E80B00F1780E4FEA4E038C
:103F80007730CFE54FF48051EBE60121D8F80430CB
:103F9000921001FA02F21A43C8F80420614677E74A
:103FA0000123CBF8043025E740F25452934220D845
:103FB000A80C00F17D0E4FEA4E037C30B2E51032C2
:103FC000A4E6542A26D81A0B02F16F0149006E327A
:103FD00048E7BC68626822F0030205E7CAF30B00F9
:103FE00000287FF4A8AE4244BB6842F001025A6048
:103FF000ECE6FE234FF07F0E7E2093E501224FF08A
:104000000009C1E604F10801304600F0A9F8D9F82A
:104010000010DBE6B2F5AA7F05D8DA0B02F17801D1
:10402000490077321EE740F254518A4205D89A0C73
:1040300002F17D0149007C3214E7FE217E2211E766
:104040007B6884E7E808431C5B00F8E55C0CFF1F15
:10405000704700BF704700BF38B5074C00230546C6
:1040600008462360FDF77CF8431C00D038BD236868
:10407000002BFBD02B6038BD0015FF1F024B13B186
:10408000024800F005B87047000000009D400000A5
:10409000002301461A46184600F04AB938B5074DC4
:1040A000074C2C1BA41005D0013C55F8043D984743
:1040B000002CF9D1BDE8384000F070BB00000000D2
:1040C00000000000F8B5234F0C460646FFF7C0FF7E
:1040D000BB685D6825F00305291B01F6EF7121F42B
:1040E0007F6121F00F01A1F58054B4F5805F07DBFB
:1040F00000213046FFF7B0FFBB682B44984204D044
:104100003046FFF7A7FF0020F8BD61423046FFF7B9
:10411000A3FF01300DD0104BBA6819682D1B45F074
:1041200001053046091B55601960FFF793FF012018
:10413000F8BD00213046FFF78FFFBA68831A0F2BB6
:10414000DEDD064C0449246843F00103001B536084
:104150000860D5E75C0CFF1FC414FF1F6810FF1F29
:10416000002945D02DE9F0410D468046FFF770FF4C
:1041700055F8047C6A4927F00103A5F10804E21808
:104180008E685068B24220F0030062D0FE07506093
:104190000BD455F8087CE41B01F1080EA5687545A1
:1041A0003B446FD0E768EF60BD6015186D68ED07A0
:1041B00042D543F001026260E350B3F5007F18D2AC
:1041C000DB085A1C4D6851F83270A76001209B1023
:1041D00000FA03F301EBC2001D430838E0604D60B4
:1041E00041F83240FC604046BDE8F041FFF732BF85
:1041F00070475A0A042A53D89A0902F139077F00F6
:1042000002F1380501EB870051F8272044490838AE
:1042100090424DD0516821F003018B4202D2926846
:104220009042F7D1D068E060A2608460D4604046DC
:10423000BDE8F041FFF70EBF95683A4FBD42034419
:104240003FD0D068E86043F0010285606260E350CF
:10425000B3E7FF07034407D455F8082CA41A134406
:10426000A068E268C26090602F4A126843F00100C3
:10427000934260608C60B6D32C4B40461968FFF7C0
:1042800021FFB0E711184968C90744D49168D26882
:10429000CA60034443F0010091606060E350A2E70C
:1042A000142A17D802F15C077F0002F15B05A9E729
:1042B000AA104B68012505FA02F213434B6002462F
:1042C000B1E743F001024C610C61E560A5606260FA
:1042D000E35088E7542A06D81A0B02F16F077F00D3
:1042E00002F16E058EE7B2F5AA7F06D8DA0B02F16D
:1042F00078077F0002F1770584E740F2545082424C
:1043000006D89A0C02F17D077F0002F17C0579E75F
:10431000FE277E2576E743F001026260E35062E704
:104320005C0CFF1F640CFF1F6410FF1FC014FF1FF5
:104330002DE9F047254C2568D5F8484106468846C2
:1043400092469946C4B360681F2817DC431C76B1B7
:1043500004EB80050122C5F888A0D4F888118240BA
:104360001143022EC4F88811C5F808911ED00230FE
:10437000636044F820800020BDE8F087144B03B34D
:104380004FF4C870FFF7A4FB0446D0B1D5F848310C
:10439000002780E88800C5F8484138460123C4F862
:1043A0008871C4F88C71002EE1D0D1E7D4F88C115B
:1043B0000A43C4F88C21DAE705F5A674C5F848412C
:1043C000C1E74FF0FF30BDE8F08700BF8047000035
:1043D000D13A0000496E697469616C697A617469E7
:1043E0006F6E206F662074686520666C6F7720732F
:1043F000656E736F72206661696C65640000000011
:10440000094D3A2000000000094F3A20000000004A
:1044100009583A200000000009593A200000000025
:1044200009513A20000000000952533A20000000D0
:104430000952483A2000000009524C3A200000007E
:104440000953483A2000000009534C3A2000FFFF6E
:104450004E6F20466C6F772053656E736F722046E7
:104460006F756E64210000003C8004400010000065
:10447000041A0000FF7F00000F0E0000910C0000E6
:104480000C0827FF000200000002000000020000EC
:10449000000000000B071CFF0002000000020000EB
:1044A00000020000000000000D0E1B0000020000D2
:1044B00000020000000200000A0209061417151687
:1044C0000F1A2D0000020000000200000002000090
:1044D00000020000000200000002000000020000D4
:1044E00000020000000200000002000000030000C3
:1044F0000101020204040808100120004008FE43E4
:1045000040A004404408FE4344A004400018FE4379
:1045100000C004403000FE43309004403400FE43AD
:10452000349004401C18FE431CC004401018FE4385
:1045300010C004400818FE4308C004400C18FE4395
:104540000CC004400C10FE430CB004401010FE439D
:1045500010B004401810FE4318B004401C10FE4375
:104560001CB004401410FE4314B004400418FE4371
:1045700004C004400010FE4300B004400008FE43A5
:1045800000A004400408FE4304A004400C08FE43BD
:104590000CA004400808FE4308A004401418FE4381
:1045A00014C004401818FE4318C004400410FE4311
:1045B00004B004400810FE4308B004406820FE43E5
:1045C00068D004401400FE43149004403800FE43B9
:1045D000389004403C00FE433C9004404000FE43C1
:1045E000409004404808FE4348A004404C08FE4365
:1045F0004CA004402808FE4328A004402C08FE4399
:104600002CA004406020FE4360D004406420FE43A0
:1046100064D004402010FE4320B004402410FE4328
:1046200024B004402810FE4328B004402C10FE4360
:104630002CB004404400FE43449004407000FE430C
:10464000709004407400FE43749004406800FE4380
:10465000689004405008FE4350A004405808FE43B0
:1046600058A004405C08FE435CA004405408FE438C
:1046700054A004402018FE4320C004402418FE43E8
:1046800024C004401008FE4310A004401408FE4358
:1046900014A004403818FE4338C004403418FE43C8
:1046A00034C004403018FE4330C004403C18FE4380
:1046B0003CC004402C18FE432CC004402820FE437C
:1046C00028D004402C20FE432CD004400020FE4380
:1046D00000D004400420FE4304D004400820FE43E0
:1046E00008D004400C20FE430CD004401020FE43B0
:1046F00010D004401420FE4314D004400D0AFFFFE4
:104700000000000000000000912F0000892F000031
:10471000852F0000812F00007D2F0000792F0000E1
:10472000752F0000712F0000001519150001000001
:104730008C07FF1F1200000000020000B807FF1FD7
:1047400043000000000300001408FF1F00000000E9
:1047500001030904A007FF1F000000000203090471
:10476000FC07FF1F00000000030309041808FF1FD7
:104770000000000000000000000000000000000039
:104780003008FF1FF8B500BFF8BC08BC9E46704754
:0C4790007D40000035040000CD05000055
:04479C00F8B500BFAD
:1047A00000C002406844000000000000000000005B
:1047B00000000000000000000000000000000000F9
:1047C00000000000000000000000000000000000E9
:1047D00000000000000000000000000000000000D9
:1047E0000415FF1FFFFFFFFF084700000000000047
:1047F000E8030000000000000A040000120110019C
:1048000002000040C0168304770201020301000089
:1048100018035400650065006E00730079006400A1
:10482000750069006E006F0009024300020100C0BC
:1048300032090400000102020100052400100105F4
:104840002401010104240206052406000107058253
:104850000310004009040100020A000000070503DC
:1048600002400000070584024000000016035500C6
:10487000530042002000530065007200690061008F
:104880006C000000040309040C0300000000000099
:104890000000000000000000000000000000000018
:1048A000000000001C0BFF1F840BFF1FEC0BFF1F01
:1048B00000000000000000000000000000000000F8
:1048C00000000000000000000000000000000000E8
:1048D00000000000000000000000000000000000D8
:1048E00000000000000000000000000000000000C8
:1048F00000000000000000000000000000000000B8
:1049000000000000000000000000000000000000A7
:104910000000000000000000000000000000000097
:104920000000000000000000000000000000000087
:104930000000000000000000000000000000000077
:104940000000000000000000010000000000000066
:104950000E33CDAB34126DE6ECDE05000B0000002B
:104960000000000000000000000000000000000047
:104970000000000000000000000000000000000037
:104980000000000000000000000000000000000027
:104990000000000000000000000000000000000017
:104CC00000000000000000003008FF1F000000008E
:104CD000000000005C0CFF1F5C0CFF1F640CFF1F3A
:104CE000640CFF1F6C0CFF1F6C0CFF1F740CFF1F6C
:104CF000740CFF1F7C0CFF1F7C0CFF1F840CFF1F1C
:104D0000840CFF1F8C0CFF1F8C0CFF1F940CFF1FCB
:104D1000940CFF1F9C0CFF1F9C0CFF1FA40CFF1F7B
:104D2000A40CFF1FAC0CFF1FAC0CFF1FB40CFF1F2B
:104D3000B40CFF1FBC0CFF1FBC0CFF1FC40CFF1FDB
:104D4000C40CFF1FCC0CFF1FCC0CFF1FD40CFF1F8B
:104D5000D40CFF1FDC0CFF1FDC0CFF1FE40CFF1F3B
:104D6000E40CFF1FEC0CFF1FEC0CFF1FF40CFF1FEB
:104D7000F40CFF1FFC0CFF1FFC0CFF1F040DFF1F9A
:104D8000040DFF1F0C0DFF1F0C0DFF1F140DFF1F47
:104D9000140DFF1F1C0DFF1F1C0DFF1F240DFF1FF7
:104DA000240DFF1F2C0DFF1F2C0DFF1F340DFF1FA7
:104DB000340DFF1F3C0DFF1F3C0DFF1F440DFF1F57
:104DC000440DFF1F4C0DFF1F4C0DFF1F540DFF1F07
:104DD000540DFF1F5C0DFF1F5C0DFF1F640DFF1FB7
:104DE000640DFF1F6C0DFF1F6C0DFF1F740DFF1F67
:104DF000740DFF1F7C0DFF1F7C0DFF1F840DFF1F17
:104E0000840DFF1F8C0DFF1F8C0DFF1F940DFF1FC6
:104E1000940DFF1F9C0DFF1F9C0DFF1FA40DFF1F76
:104E2000A40DFF1FAC0DFF1FAC0DFF1FB40DFF1F26
:104E3000B40DFF1FBC0DFF1FBC0DFF1FC40DFF1FD6
:104E4000C40DFF1FCC0DFF1FCC0DFF1FD40DFF1F86
:104E5000D40DFF1FDC0DFF1FDC0DFF1FE40DFF1F36
:104E6000E40DFF1FEC0DFF1FEC0DFF1FF40DFF1FE6
:104E7000F40DFF1FFC0DFF1FFC0DFF1F040EFF1F95
:104E8000040EFF1F0C0EFF1F0C0EFF1F140EFF1F42
:104E9000140EFF1F1C0EFF1F1C0EFF1F240EFF1FF2
:104EA000240EFF1F2C0EFF1F2C0EFF1F340EFF1FA2
:104EB000340EFF1F3C0EFF1F3C0EFF1F440EFF1F52
:104EC000440EFF1F4C0EFF1F4C0EFF1F540EFF1F02
:104ED000540EFF1F5C0EFF1F5C0EFF1F640EFF1FB2
:104EE000640EFF1F6C0EFF1F6C0EFF1F740EFF1F62
:104EF000740EFF1F7C0EFF1F7C0EFF1F840EFF1F12
:104F0000840EFF1F8C0EFF1F8C0EFF1F940EFF1FC1
:104F1000940EFF1F9C0EFF1F9C0EFF1FA40EFF1F71
:104F2000A40EFF1FAC0EFF1FAC0EFF1FB40EFF1F21
:104F3000B40EFF1FBC0EFF1FBC0EFF1FC40EFF1FD1
:104F4000C40EFF1FCC0EFF1FCC0EFF1FD40EFF1F81
:104F5000D40EFF1FDC0EFF1FDC0EFF1FE40EFF1F31
:104F6000E40EFF1FEC0EFF1FEC0EFF1FF40EFF1FE1
:104F7000F40EFF1FFC0EFF1FFC0EFF1F040FFF1F90
:104F8000040FFF1F0C0FFF1F0C0FFF1F140FFF1F3D
:104F9000140FFF1F1C0FFF1F1C0FFF1F240FFF1FED
:104FA000240FFF1F2C0FFF1F2C0FFF1F340FFF1F9D
:104FB000340FFF1F3C0FFF1F3C0FFF1F440FFF1F4D
:104FC000440FFF1F4C0FFF1F4C0FFF1F540FFF1FFD
:104FD000540FFF1F5C0FFF1F5C0FFF1F640FFF1FAD
:104FE000640FFF1F6C0FFF1F6C0FFF1F740FFF1F5D
:104FF000740FFF1F7C0FFF1F7C0FFF1F840FFF1F0D
:10500000840FFF1F8C0FFF1F8C0FFF1F940FFF1FBC
:10501000940FFF1F9C0FFF1F9C0FFF1FA40FFF1F6C
:10502000A40FFF1FAC0FFF1FAC0FFF1FB40FFF1F1C
:10503000B40FFF1FBC0FFF1FBC0FFF1FC40FFF1FCC
:10504000C40FFF1FCC0FFF1FCC0FFF1FD40FFF1F7C
:10505000D40FFF1FDC0FFF1FDC0FFF1FE40FFF1F2C
:10506000E40FFF1FEC0FFF1FEC0FFF1FF40FFF1FDC
:10507000F40FFF1FFC0FFF1FFC0FFF1F0410FF1F8B
:105080000410FF1F0C10FF1F0C10FF1F1410FF1F38
:105090001410FF1F1C10FF1F1C10FF1F2410FF1FE8
:1050A0002410FF1F2C10FF1F2C10FF1F3410FF1F98
:1050B0003410FF1F3C10FF1F3C10FF1F4410FF1F48
:1050C0004410FF1F4C10FF1F4C10FF1F5410FF1FF8
:0C50D0005410FF1F00000200FFFFFFFF54
:00000001FF
